{
  "contractName": "DashBoard",
  "abi": [
    {
      "inputs": [
        {
          "internalType": "contract IERC20",
          "name": "_totoToken",
          "type": "address"
        }
      ],
      "stateMutability": "nonpayable",
      "type": "constructor"
    },
    {
      "anonymous": false,
      "inputs": [
        {
          "indexed": true,
          "internalType": "address",
          "name": "from",
          "type": "address"
        },
        {
          "indexed": false,
          "internalType": "uint256",
          "name": "amount",
          "type": "uint256"
        }
      ],
      "name": "Bet",
      "type": "event"
    },
    {
      "anonymous": false,
      "inputs": [
        {
          "indexed": true,
          "internalType": "address",
          "name": "from",
          "type": "address"
        }
      ],
      "name": "Cancel",
      "type": "event"
    },
    {
      "anonymous": false,
      "inputs": [],
      "name": "Complete",
      "type": "event"
    },
    {
      "inputs": [],
      "name": "DaiToken",
      "outputs": [
        {
          "internalType": "contract IERC20",
          "name": "",
          "type": "address"
        }
      ],
      "stateMutability": "view",
      "type": "function"
    },
    {
      "inputs": [],
      "name": "TotoToken",
      "outputs": [
        {
          "internalType": "contract IERC20",
          "name": "",
          "type": "address"
        }
      ],
      "stateMutability": "view",
      "type": "function"
    },
    {
      "inputs": [
        {
          "internalType": "address",
          "name": "",
          "type": "address"
        }
      ],
      "name": "betAmount",
      "outputs": [
        {
          "internalType": "uint256",
          "name": "",
          "type": "uint256"
        }
      ],
      "stateMutability": "view",
      "type": "function"
    },
    {
      "inputs": [
        {
          "internalType": "address",
          "name": "",
          "type": "address"
        }
      ],
      "name": "isBetting",
      "outputs": [
        {
          "internalType": "bool",
          "name": "",
          "type": "bool"
        }
      ],
      "stateMutability": "view",
      "type": "function"
    },
    {
      "inputs": [],
      "name": "name",
      "outputs": [
        {
          "internalType": "string",
          "name": "",
          "type": "string"
        }
      ],
      "stateMutability": "view",
      "type": "function"
    },
    {
      "inputs": [
        {
          "internalType": "address",
          "name": "",
          "type": "address"
        }
      ],
      "name": "startTime",
      "outputs": [
        {
          "internalType": "uint256",
          "name": "",
          "type": "uint256"
        }
      ],
      "stateMutability": "view",
      "type": "function"
    },
    {
      "inputs": [
        {
          "internalType": "uint256",
          "name": "_amount",
          "type": "uint256"
        }
      ],
      "name": "addBet",
      "outputs": [],
      "stateMutability": "nonpayable",
      "type": "function"
    },
    {
      "inputs": [],
      "name": "cancelBet",
      "outputs": [],
      "stateMutability": "nonpayable",
      "type": "function"
    }
  ],
  "bytecode": "0x60806040526040518060400160405280600c81526020017f546f746f436f6e747261637400000000000000000000000000000000000000008152506005908051906020019061004f9291906100c5565b5034801561005c57600080fd5b50604051610865380380610865833981810160405281019061007e91906101dd565b80600360006101000a81548173ffffffffffffffffffffffffffffffffffffffff021916908373ffffffffffffffffffffffffffffffffffffffff1602179055505061026b565b8280546100d190610239565b90600052602060002090601f0160209004810192826100f3576000855561013a565b82601f1061010c57805160ff191683800117855561013a565b8280016001018555821561013a579182015b8281111561013957825182559160200191906001019061011e565b5b509050610147919061014b565b5090565b5b8082111561016457600081600090555060010161014c565b5090565b600080fd5b600073ffffffffffffffffffffffffffffffffffffffff82169050919050565b60006101988261016d565b9050919050565b60006101aa8261018d565b9050919050565b6101ba8161019f565b81146101c557600080fd5b50565b6000815190506101d7816101b1565b92915050565b6000602082840312156101f3576101f2610168565b5b6000610201848285016101c8565b91505092915050565b7f4e487b7100000000000000000000000000000000000000000000000000000000600052602260045260246000fd5b6000600282049050600182168061025157607f821691505b602082108114156102655761026461020a565b5b50919050565b6105eb8061027a6000396000f3fe608060405234801561001057600080fd5b50600436106100885760003560e01c8063b533312f1161005b578063b533312f14610115578063ba58177214610133578063cdaba78614610163578063d2e459151461017f57610088565b806306fdde031461008d57806334aa7e00146100ab5780636e1dc66e146100db5780637b6d79f11461010b575b600080fd5b61009561019d565b6040516100a29190610365565b60405180910390f35b6100c560048036038101906100c091906103ea565b61022b565b6040516100d29190610430565b60405180910390f35b6100f560048036038101906100f091906103ea565b610243565b6040516101029190610430565b60405180910390f35b61011361025b565b005b61011d61025d565b60405161012a91906104aa565b60405180910390f35b61014d600480360381019061014891906103ea565b610283565b60405161015a91906104e0565b60405180910390f35b61017d60048036038101906101789190610527565b6102a3565b005b6101876102a6565b60405161019491906104aa565b60405180910390f35b600580546101aa90610583565b80601f01602080910402602001604051908101604052809291908181526020018280546101d690610583565b80156102235780601f106101f857610100808354040283529160200191610223565b820191906000526020600020905b81548152906001019060200180831161020657829003601f168201915b505050505081565b60006020528060005260406000206000915090505481565b60026020528060005260406000206000915090505481565b565b600360009054906101000a900473ffffffffffffffffffffffffffffffffffffffff1681565b60016020528060005260406000206000915054906101000a900460ff1681565b50565b600460009054906101000a900473ffffffffffffffffffffffffffffffffffffffff1681565b600081519050919050565b600082825260208201905092915050565b60005b838110156103065780820151818401526020810190506102eb565b83811115610315576000848401525b50505050565b6000601f19601f8301169050919050565b6000610337826102cc565b61034181856102d7565b93506103518185602086016102e8565b61035a8161031b565b840191505092915050565b6000602082019050818103600083015261037f818461032c565b905092915050565b600080fd5b600073ffffffffffffffffffffffffffffffffffffffff82169050919050565b60006103b78261038c565b9050919050565b6103c7816103ac565b81146103d257600080fd5b50565b6000813590506103e4816103be565b92915050565b600060208284031215610400576103ff610387565b5b600061040e848285016103d5565b91505092915050565b6000819050919050565b61042a81610417565b82525050565b60006020820190506104456000830184610421565b92915050565b6000819050919050565b600061047061046b6104668461038c565b61044b565b61038c565b9050919050565b600061048282610455565b9050919050565b600061049482610477565b9050919050565b6104a481610489565b82525050565b60006020820190506104bf600083018461049b565b92915050565b60008115159050919050565b6104da816104c5565b82525050565b60006020820190506104f560008301846104d1565b92915050565b61050481610417565b811461050f57600080fd5b50565b600081359050610521816104fb565b92915050565b60006020828403121561053d5761053c610387565b5b600061054b84828501610512565b91505092915050565b7f4e487b7100000000000000000000000000000000000000000000000000000000600052602260045260246000fd5b6000600282049050600182168061059b57607f821691505b602082108114156105af576105ae610554565b5b5091905056fea2646970667358221220a0fc4088b1e35838cd1ac3ce359024ea0d4b04463a295e7b26f9a61b02c6bcfe64736f6c634300080b0033",
  "immutableReferences": {},
  "source": "// SPDX-License-Identifier: MIT\npragma solidity >=0.4.22 <0.9.0;\n\nimport \"./TotoToken.sol\";\nimport \"@openzeppelin/contracts/token/ERC20/IERC20.sol\";\n\ncontract DashBoard {\n    // uesrAddress => bettingAmount\n    mapping(address => uint256) public betAmount;\n    // userAddress => isBetting\n    mapping(address => bool) public isBetting;\n    // userAddress => timestamp<uint256>\n    //// note: User betting start time\n    mapping(address => uint256) public startTime;\n\n    IERC20 public TotoToken;\n    IERC20 public DaiToken;\n\n    string public name = \"TotoContract\";\n    \n    //// note: Event called when user bets a game\n    event Bet(address indexed from, uint256 amount);\n    //// note: Event called when user cancels a bet\n    event Cancel(address indexed from);\n    //// note: Event called when Betting is completed\n    event Complete();\n\n    constructor(\n        IERC20 _totoToken\n    ){\n        TotoToken = _totoToken;\n    }\n\n    function addBet(uint256 _amount) public {}\n\n    function cancelBet() public {}\n\n}",
  "sourcePath": "/Users/idohyeon/solidity/toto/contracts/Dashboard.sol",
  "compiler": {
    "name": "solc",
    "version": "0.8.11+commit.d7f03943.Emscripten.clang"
  },
  "schemaVersion": "3.4.5",
  "updatedAt": "2022-05-26T11:25:46.746Z",
  "devdoc": {
    "kind": "dev",
    "methods": {},
    "version": 1
  },
  "userdoc": {
    "kind": "user",
    "methods": {},
    "version": 1
  }
}