{
  "contractName": "PriceFeed",
  "abi": [
    {
      "inputs": [],
      "stateMutability": "nonpayable",
      "type": "constructor"
    },
    {
      "inputs": [],
      "name": "getLatestPrice",
      "outputs": [
        {
          "internalType": "int256",
          "name": "",
          "type": "int256"
        }
      ],
      "stateMutability": "view",
      "type": "function"
    }
  ],
  "bytecode": "0x608060405234801561001057600080fd5b50739326bfa02add2366b30bacb125260af6410313316000806101000a81548173ffffffffffffffffffffffffffffffffffffffff021916908373ffffffffffffffffffffffffffffffffffffffff160217905550610289806100746000396000f3fe608060405234801561001057600080fd5b506004361061002b5760003560e01c80638e15f47314610030575b600080fd5b61003861004e565b6040516100459190610114565b60405180910390f35b60008060008060008060008054906101000a900473ffffffffffffffffffffffffffffffffffffffff1673ffffffffffffffffffffffffffffffffffffffff1663feaf968c6040518163ffffffff1660e01b815260040160a060405180830381865afa1580156100c2573d6000803e3d6000fd5b505050506040513d601f19601f820116820180604052508101906100e691906101d8565b94509450945094509450839550505050505090565b6000819050919050565b61010e816100fb565b82525050565b60006020820190506101296000830184610105565b92915050565b600080fd5b600069ffffffffffffffffffff82169050919050565b61015381610134565b811461015e57600080fd5b50565b6000815190506101708161014a565b92915050565b61017f816100fb565b811461018a57600080fd5b50565b60008151905061019c81610176565b92915050565b6000819050919050565b6101b5816101a2565b81146101c057600080fd5b50565b6000815190506101d2816101ac565b92915050565b600080600080600060a086880312156101f4576101f361012f565b5b600061020288828901610161565b95505060206102138882890161018d565b9450506040610224888289016101c3565b9350506060610235888289016101c3565b925050608061024688828901610161565b915050929550929590935056fea2646970667358221220032af949aa34744c7123e4699f270ff7e9e51bd143f2ad56dba500b1b876354e64736f6c634300080b0033",
  "immutableReferences": {},
  "source": "// SPDX-License-Identifier: MIT\npragma solidity >=0.4.22 <0.9.0;\n\nimport \"@chainlink/contracts/src/v0.8/interfaces/AggregatorV3Interface.sol\";\n\ncontract PriceFeed {\n    AggregatorV3Interface internal priceFeed;\n\n    constructor(){\n        // connect to proxy aggregator contract deployed at stated address\n        // The interface allows our contract to run functions on that deployed aggregator contract\n        // proxy address for KOVAN ETH/USD data feed\n        // Our contract connected to KOVAN ETH/USD data feed and run the functions\n        priceFeed = AggregatorV3Interface(0x9326BFA02ADD2366b30bacB125260Af641031331);\n    }\n\n    function getLatestPrice() public view returns (int) {\n        (\n            uint80 roundID,\n            int price,\n            uint startedAt,\n            uint timeStamp,\n            uint80 answeredInRound\n        ) = priceFeed.latestRoundData();\n        return price;\n    }\n}",
  "sourcePath": "/Users/idohyeon/solidity/toto/contracts/PriceFeed.sol",
  "compiler": {
    "name": "solc",
    "version": "0.8.11+commit.d7f03943.Emscripten.clang"
  },
  "schemaVersion": "3.4.5",
  "updatedAt": "2022-05-26T11:25:46.749Z",
  "devdoc": {
    "kind": "dev",
    "methods": {},
    "version": 1
  },
  "userdoc": {
    "kind": "user",
    "methods": {},
    "version": 1
  }
}