{
  "contractName": "TokenSwap",
  "abi": [
    {
      "inputs": [
        {
          "internalType": "address",
          "name": "_ercOwner",
          "type": "address"
        },
        {
          "internalType": "address",
          "name": "_totoOwner",
          "type": "address"
        },
        {
          "internalType": "address",
          "name": "_ercToken",
          "type": "address"
        },
        {
          "internalType": "address",
          "name": "_totoToken",
          "type": "address"
        }
      ],
      "stateMutability": "nonpayable",
      "type": "constructor"
    },
    {
      "inputs": [],
      "name": "TOKENSWAP",
      "outputs": [
        {
          "internalType": "string",
          "name": "",
          "type": "string"
        }
      ],
      "stateMutability": "view",
      "type": "function"
    },
    {
      "inputs": [],
      "name": "ercOwner",
      "outputs": [
        {
          "internalType": "address",
          "name": "",
          "type": "address"
        }
      ],
      "stateMutability": "view",
      "type": "function"
    },
    {
      "inputs": [],
      "name": "ercToken",
      "outputs": [
        {
          "internalType": "contract IERC20",
          "name": "",
          "type": "address"
        }
      ],
      "stateMutability": "view",
      "type": "function"
    },
    {
      "inputs": [],
      "name": "totoOwner",
      "outputs": [
        {
          "internalType": "address",
          "name": "",
          "type": "address"
        }
      ],
      "stateMutability": "view",
      "type": "function"
    },
    {
      "inputs": [],
      "name": "totoToken",
      "outputs": [
        {
          "internalType": "contract IERC20",
          "name": "",
          "type": "address"
        }
      ],
      "stateMutability": "view",
      "type": "function"
    },
    {
      "inputs": [
        {
          "internalType": "uint256",
          "name": "_amount1",
          "type": "uint256"
        },
        {
          "internalType": "uint256",
          "name": "_amount2",
          "type": "uint256"
        }
      ],
      "name": "swap",
      "outputs": [],
      "stateMutability": "nonpayable",
      "type": "function"
    }
  ],
  "bytecode": "0x60806040526040518060400160405280600981526020017f544f4b454e53574150000000000000000000000000000000000000000000000081525060009080519060200190620000519291906200035f565b503480156200005f57600080fd5b506040516200123038038062001230833981810160405281019062000085919062000479565b600073ffffffffffffffffffffffffffffffffffffffff168473ffffffffffffffffffffffffffffffffffffffff161415620000f8576040517f08c379a0000000000000000000000000000000000000000000000000000000008152600401620000ef906200054c565b60405180910390fd5b600073ffffffffffffffffffffffffffffffffffffffff168373ffffffffffffffffffffffffffffffffffffffff1614156200016b576040517f08c379a000000000000000000000000000000000000000000000000000000000815260040162000162906200054c565b60405180910390fd5b600073ffffffffffffffffffffffffffffffffffffffff168273ffffffffffffffffffffffffffffffffffffffff161415620001de576040517f08c379a0000000000000000000000000000000000000000000000000000000008152600401620001d590620005be565b60405180910390fd5b600073ffffffffffffffffffffffffffffffffffffffff168173ffffffffffffffffffffffffffffffffffffffff16141562000251576040517f08c379a00000000000000000000000000000000000000000000000000000000081526004016200024890620005be565b60405180910390fd5b83600260006101000a81548173ffffffffffffffffffffffffffffffffffffffff021916908373ffffffffffffffffffffffffffffffffffffffff16021790555082600460006101000a81548173ffffffffffffffffffffffffffffffffffffffff021916908373ffffffffffffffffffffffffffffffffffffffff16021790555081600160006101000a81548173ffffffffffffffffffffffffffffffffffffffff021916908373ffffffffffffffffffffffffffffffffffffffff16021790555080600360006101000a81548173ffffffffffffffffffffffffffffffffffffffff021916908373ffffffffffffffffffffffffffffffffffffffff1602179055505050505062000645565b8280546200036d906200060f565b90600052602060002090601f016020900481019282620003915760008555620003dd565b82601f10620003ac57805160ff1916838001178555620003dd565b82800160010185558215620003dd579182015b82811115620003dc578251825591602001919060010190620003bf565b5b509050620003ec9190620003f0565b5090565b5b808211156200040b576000816000905550600101620003f1565b5090565b600080fd5b600073ffffffffffffffffffffffffffffffffffffffff82169050919050565b6000620004418262000414565b9050919050565b620004538162000434565b81146200045f57600080fd5b50565b600081519050620004738162000448565b92915050565b600080600080608085870312156200049657620004956200040f565b5b6000620004a68782880162000462565b9450506020620004b98782880162000462565b9350506040620004cc8782880162000462565b9250506060620004df8782880162000462565b91505092959194509250565b600082825260208201905092915050565b7f4f776e657220616464726573732063616e6e6f74206265207a65726f00000000600082015250565b600062000534601c83620004eb565b91506200054182620004fc565b602082019050919050565b60006020820190508181036000830152620005678162000525565b9050919050565b7f546f6b656e20616464726573732063616e6e6f74206265207a65726f00000000600082015250565b6000620005a6601c83620004eb565b9150620005b3826200056e565b602082019050919050565b60006020820190508181036000830152620005d98162000597565b9050919050565b7f4e487b7100000000000000000000000000000000000000000000000000000000600052602260045260246000fd5b600060028204905060018216806200062857607f821691505b602082108114156200063f576200063e620005e0565b5b50919050565b610bdb80620006556000396000f3fe608060405234801561001057600080fd5b50600436106100625760003560e01c8063719e2d86146100675780637b91c95b146100855780637f2f767e146100a3578063c86dfdff146100c1578063d96073cf146100df578063f7bb5794146100fb575b600080fd5b61006f610119565b60405161007c919061071f565b60405180910390f35b61008d61013f565b60405161009a91906107d3565b60405180910390f35b6100ab6101cd565b6040516100b89190610854565b60405180910390f35b6100c96101f3565b6040516100d69190610854565b60405180910390f35b6100f960048036038101906100f491906108aa565b610219565b005b6101036105ed565b604051610110919061071f565b60405180910390f35b600260009054906101000a900473ffffffffffffffffffffffffffffffffffffffff1681565b6000805461014c90610919565b80601f016020809104026020016040519081016040528092919081815260200182805461017890610919565b80156101c55780601f1061019a576101008083540402835291602001916101c5565b820191906000526020600020905b8154815290600101906020018083116101a857829003601f168201915b505050505081565b600160009054906101000a900473ffffffffffffffffffffffffffffffffffffffff1681565b600360009054906101000a900473ffffffffffffffffffffffffffffffffffffffff1681565b600260009054906101000a900473ffffffffffffffffffffffffffffffffffffffff1673ffffffffffffffffffffffffffffffffffffffff163373ffffffffffffffffffffffffffffffffffffffff1614806102c25750600460009054906101000a900473ffffffffffffffffffffffffffffffffffffffff1673ffffffffffffffffffffffffffffffffffffffff163373ffffffffffffffffffffffffffffffffffffffff16145b610301576040517f08c379a00000000000000000000000000000000000000000000000000000000081526004016102f890610997565b60405180910390fd5b81600160009054906101000a900473ffffffffffffffffffffffffffffffffffffffff1673ffffffffffffffffffffffffffffffffffffffff1663dd62ed3e600260009054906101000a900473ffffffffffffffffffffffffffffffffffffffff16306040518363ffffffff1660e01b81526004016103819291906109b7565b602060405180830381865afa15801561039e573d6000803e3d6000fd5b505050506040513d601f19601f820116820180604052508101906103c291906109f5565b1015610403576040517f08c379a00000000000000000000000000000000000000000000000000000000081526004016103fa90610a6e565b60405180910390fd5b81600360009054906101000a900473ffffffffffffffffffffffffffffffffffffffff1673ffffffffffffffffffffffffffffffffffffffff1663dd62ed3e600460009054906101000a900473ffffffffffffffffffffffffffffffffffffffff16306040518363ffffffff1660e01b81526004016104839291906109b7565b602060405180830381865afa1580156104a0573d6000803e3d6000fd5b505050506040513d601f19601f820116820180604052508101906104c491906109f5565b1015610505576040517f08c379a00000000000000000000000000000000000000000000000000000000081526004016104fc90610a6e565b60405180910390fd5b610577600160009054906101000a900473ffffffffffffffffffffffffffffffffffffffff16600260009054906101000a900473ffffffffffffffffffffffffffffffffffffffff16600460009054906101000a900473ffffffffffffffffffffffffffffffffffffffff1685610613565b6105e9600360009054906101000a900473ffffffffffffffffffffffffffffffffffffffff16600460009054906101000a900473ffffffffffffffffffffffffffffffffffffffff16600260009054906101000a900473ffffffffffffffffffffffffffffffffffffffff1684610613565b5050565b600460009054906101000a900473ffffffffffffffffffffffffffffffffffffffff1681565b60008473ffffffffffffffffffffffffffffffffffffffff166323b872dd8585856040518463ffffffff1660e01b815260040161065293929190610a9d565b6020604051808303816000875af1158015610671573d6000803e3d6000fd5b505050506040513d601f19601f820116820180604052508101906106959190610b0c565b9050806106d7576040517f08c379a00000000000000000000000000000000000000000000000000000000081526004016106ce90610b85565b60405180910390fd5b5050505050565b600073ffffffffffffffffffffffffffffffffffffffff82169050919050565b6000610709826106de565b9050919050565b610719816106fe565b82525050565b60006020820190506107346000830184610710565b92915050565b600081519050919050565b600082825260208201905092915050565b60005b83811015610774578082015181840152602081019050610759565b83811115610783576000848401525b50505050565b6000601f19601f8301169050919050565b60006107a58261073a565b6107af8185610745565b93506107bf818560208601610756565b6107c881610789565b840191505092915050565b600060208201905081810360008301526107ed818461079a565b905092915050565b6000819050919050565b600061081a610815610810846106de565b6107f5565b6106de565b9050919050565b600061082c826107ff565b9050919050565b600061083e82610821565b9050919050565b61084e81610833565b82525050565b60006020820190506108696000830184610845565b92915050565b600080fd5b6000819050919050565b61088781610874565b811461089257600080fd5b50565b6000813590506108a48161087e565b92915050565b600080604083850312156108c1576108c061086f565b5b60006108cf85828601610895565b92505060206108e085828601610895565b9150509250929050565b7f4e487b7100000000000000000000000000000000000000000000000000000000600052602260045260246000fd5b6000600282049050600182168061093157607f821691505b60208210811415610945576109446108ea565b5b50919050565b7f4e6f7420617574686f72697a6564206f776e6572000000000000000000000000600082015250565b6000610981601483610745565b915061098c8261094b565b602082019050919050565b600060208201905081810360008301526109b081610974565b9050919050565b60006040820190506109cc6000830185610710565b6109d96020830184610710565b9392505050565b6000815190506109ef8161087e565b92915050565b600060208284031215610a0b57610a0a61086f565b5b6000610a19848285016109e0565b91505092915050565b7f446169546f6b656e20416c6c6f77616e636520697320746f6f206c6f77000000600082015250565b6000610a58601d83610745565b9150610a6382610a22565b602082019050919050565b60006020820190508181036000830152610a8781610a4b565b9050919050565b610a9781610874565b82525050565b6000606082019050610ab26000830186610710565b610abf6020830185610710565b610acc6040830184610a8e565b949350505050565b60008115159050919050565b610ae981610ad4565b8114610af457600080fd5b50565b600081519050610b0681610ae0565b92915050565b600060208284031215610b2257610b2161086f565b5b6000610b3084828501610af7565b91505092915050565b7f546f6b656e207472616e73666572206661696c65640000000000000000000000600082015250565b6000610b6f601583610745565b9150610b7a82610b39565b602082019050919050565b60006020820190508181036000830152610b9e81610b62565b905091905056fea2646970667358221220e127a2c5bd165beb8c84afb5bde7680873c8434a452e5d28c9386d17638dc97364736f6c634300080b0033",
  "immutableReferences": {},
  "source": "// SPDX-License-Identifier: MIT\npragma solidity >=0.4.22 <0.9.0;\n\nimport \"./TotoToken.sol\";\nimport \"@openzeppelin/contracts/token/ERC20/IERC20.sol\";\n\n/*\ninterface IERC20 {\n    event Transfer(address indexed from, address indexed to, uint256 value);\n    event Approval(address indexed owner, address indexed spender, uint256 value);\n    function totalSupply() external view returns (uint256);\n    function balanceOf(address account) external view returns (uint256);\n    function transfer(address to, uint256 amount) external returns (bool);\n    function allowance(address owner, address spender) external view returns (uint256);\n    function approve(address spender, uint256 amount) external returns (bool);\n    function transferFrom(address from, address to, uint256 amount) external returns (bool);\n}\n*/\n\n\ncontract TokenSwap {\n    string public TOKENSWAP = \"TOKENSWAP\";\n    IERC20 public ercToken;\n    address public ercOwner;\n\n    IERC20 public totoToken;\n    address public totoOwner;\n\n    constructor(\n        address _ercOwner,\n        address _totoOwner,\n        address _ercToken,\n        address _totoToken\n    ) {\n        require(_ercOwner != address(0), \"Owner address cannot be zero\");\n        require(_totoOwner != address(0), \"Owner address cannot be zero\");\n        require(_ercToken != address(0), \"Token address cannot be zero\");\n        require(_totoToken != address(0), \"Token address cannot be zero\");\n        ercOwner = _ercOwner;\n        totoOwner = _totoOwner;\n        ercToken = IERC20(_ercToken); // pass address of DaiTokenContract to use the function\n        totoToken = IERC20(_totoToken); // pass address of TotoTokenContract to use the function\n    }\n\n    function _safeTranferFrom(\n        IERC20 _token,\n        address _sender,\n        address _recipient,\n        uint256 _amount\n    ) private { \n        // Send _amount from _sender to _recipient\n        bool sent = _token.transferFrom(_sender, _recipient, _amount);\n        require(sent, \"Token transfer failed\");\n    }\n\n    function swap(uint256 _amount1, uint256 _amount2) public {\n        require(msg.sender == ercOwner || msg.sender == totoOwner, \"Not authorized owner\");\n        require(\n            ercToken.allowance(ercOwner, address(this)) >= _amount1,\n            \"DaiToken Allowance is too low\"\n        );\n        require(\n            totoToken.allowance(totoOwner, address(this)) >= _amount1,\n            \"DaiToken Allowance is too low\"\n        );\n\n        // Transfer Token ercOwner -> totoOwner\n        _safeTranferFrom(ercToken, ercOwner, totoOwner, _amount1);\n        _safeTranferFrom(totoToken, totoOwner, ercOwner, _amount2);\n    }\n}",
  "sourcePath": "/Users/idohyeon/solidity/toto/contracts/TokenSwap.sol",
  "compiler": {
    "name": "solc",
    "version": "0.8.11+commit.d7f03943.Emscripten.clang"
  },
  "schemaVersion": "3.4.5",
  "updatedAt": "2022-05-26T11:25:46.750Z",
  "devdoc": {
    "kind": "dev",
    "methods": {},
    "version": 1
  },
  "userdoc": {
    "kind": "user",
    "methods": {},
    "version": 1
  }
}